{
  "contractName": "StorageIpfs",
  "abi": [
    {
      "constant": false,
      "inputs": [
        {
          "name": "x",
          "type": "string"
        }
      ],
      "name": "sendHash",
      "outputs": [],
      "payable": false,
      "stateMutability": "nonpayable",
      "type": "function",
      "signature": "0xdfb29935"
    },
    {
      "constant": false,
      "inputs": [],
      "name": "getHash",
      "outputs": [
        {
          "name": "x",
          "type": "string"
        }
      ],
      "payable": false,
      "stateMutability": "nonpayable",
      "type": "function",
      "signature": "0xd13319c4"
    }
  ],
  "bytecode": "0x608060405234801561001057600080fd5b5061029c806100206000396000f3fe60806040526004361061004c576000357c0100000000000000000000000000000000000000000000000000000000900463ffffffff168063d13319c414610051578063dfb29935146100e1575b600080fd5b34801561005d57600080fd5b506100666101a9565b6040518080602001828103825283818151815260200191508051906020019080838360005b838110156100a657808201518184015260208101905061008b565b50505050905090810190601f1680156100d35780820380516001836020036101000a031916815260200191505b509250505060405180910390f35b3480156100ed57600080fd5b506101a76004803603602081101561010457600080fd5b810190808035906020019064010000000081111561012157600080fd5b82018360208201111561013357600080fd5b8035906020019184600183028401116401000000008311171561015557600080fd5b91908080601f016020809104026020016040519081016040528093929190818152602001838380828437600081840152601f19601f8201169050808301925050505050505091929192905050506101b1565b005b606080905090565b80600090805190602001906101c79291906101cb565b5050565b828054600181600116156101000203166002900490600052602060002090601f016020900481019282601f1061020c57805160ff191683800117855561023a565b8280016001018555821561023a579182015b8281111561023957825182559160200191906001019061021e565b5b509050610247919061024b565b5090565b61026d91905b80821115610269576000816000905550600101610251565b5090565b9056fea165627a7a7230582065b94ac1d96efa1ff7e19b9f2aebe7ea5b3b09271b0e5f9f79466e132fbc902f0029",
  "source": "pragma solidity ^0.5.0;\r\n\r\ncontract StorageIpfs {\r\n  string ipfsHash;\r\n\r\n\r\n function sendHash(string memory x) public  {\r\n   ipfsHash = x;\r\n }\r\n\r\n function getHash()  public  returns  (string  memory x)  {\r\n   return x;\r\n }\r\n\r\n//  function createList(string memory _ipfsHash) public{\r\n//    Count ++;\r\n//    ipfs[Count] = Ipfs(Count, _ipfsHash,false);\r\n//    emit IpfsLists(Count, _ipfsHash,false);\r\n//  }\r\n}",
  "sourcePath": "D:/CP499/myreact-app/contracts/StorageIpfs.sol",
  "compiler": {
    "name": "solc",
    "version": "0.5.0+commit.1d4f565a.Emscripten.clang"
  },
  "schemaVersion": "3.0.6",
  "updatedAt": "2019-04-17T06:46:05.833Z",
  "devdoc": {
    "methods": {}
  },
  "userdoc": {
    "methods": {}
  }
}